{
  "contractName": "ProvenanceStorageMock",
  "abi": [
    {
      "constant": true,
      "inputs": [
        {
          "name": "_provId",
          "type": "uint256"
        }
      ],
      "name": "isProvenance",
      "outputs": [
        {
          "name": "isIndeed",
          "type": "bool"
        }
      ],
      "payable": false,
      "stateMutability": "view",
      "type": "function",
      "signature": "0x43cd6bf4"
    },
    {
      "constant": true,
      "inputs": [
        {
          "name": "_provId",
          "type": "uint256"
        }
      ],
      "name": "getProvenance",
      "outputs": [
        {
          "name": "tokenId",
          "type": "uint256"
        },
        {
          "name": "inputProvenanceIds",
          "type": "uint256[]"
        },
        {
          "name": "context",
          "type": "string"
        },
        {
          "name": "index",
          "type": "uint256"
        }
      ],
      "payable": false,
      "stateMutability": "view",
      "type": "function",
      "signature": "0x60f1233d"
    },
    {
      "constant": true,
      "inputs": [
        {
          "name": "_index",
          "type": "uint256"
        }
      ],
      "name": "getProvenanceIdAtIndex",
      "outputs": [
        {
          "name": "provId",
          "type": "uint256"
        }
      ],
      "payable": false,
      "stateMutability": "view",
      "type": "function",
      "signature": "0x95cc3963"
    },
    {
      "constant": true,
      "inputs": [],
      "name": "getProvenanceCount",
      "outputs": [
        {
          "name": "count",
          "type": "uint256"
        }
      ],
      "payable": false,
      "stateMutability": "view",
      "type": "function",
      "signature": "0xa3ed8a21"
    },
    {
      "anonymous": false,
      "inputs": [
        {
          "indexed": false,
          "name": "provId",
          "type": "uint256"
        },
        {
          "indexed": false,
          "name": "index",
          "type": "uint256"
        },
        {
          "indexed": true,
          "name": "tokenId",
          "type": "uint256"
        },
        {
          "indexed": false,
          "name": "inputProvenanceIds",
          "type": "uint256[]"
        },
        {
          "indexed": false,
          "name": "context",
          "type": "string"
        }
      ],
      "name": "CreateProvenanceEvent",
      "type": "event",
      "signature": "0x19d22bee5782f0874b6191c6f90bded29b1628be35dce6f7b153614d2af47893"
    },
    {
      "anonymous": false,
      "inputs": [
        {
          "indexed": true,
          "name": "provId",
          "type": "uint256"
        },
        {
          "indexed": false,
          "name": "index",
          "type": "uint256"
        },
        {
          "indexed": true,
          "name": "tokenId",
          "type": "uint256"
        },
        {
          "indexed": false,
          "name": "inputProvenanceIds",
          "type": "uint256[]"
        },
        {
          "indexed": false,
          "name": "context",
          "type": "string"
        }
      ],
      "name": "UpdateProvenanceEvent",
      "type": "event",
      "signature": "0xab0254d684b4d3209da56743fdf6410fa89c36a133efb05f6a509cf78b9b8e25"
    },
    {
      "anonymous": false,
      "inputs": [
        {
          "indexed": true,
          "name": "provId",
          "type": "uint256"
        },
        {
          "indexed": false,
          "name": "index",
          "type": "uint256"
        }
      ],
      "name": "DeleteProvenanceEvent",
      "type": "event",
      "signature": "0xe7e87ecee6790f02e298c5c71c0b9c8ba50a01f5cc25d62b93f77eb4e48aed9e"
    },
    {
      "constant": false,
      "inputs": [
        {
          "name": "_provId",
          "type": "uint256"
        },
        {
          "name": "_tokenId",
          "type": "uint256"
        },
        {
          "name": "_inputProvenanceIds",
          "type": "uint256[]"
        },
        {
          "name": "_context",
          "type": "string"
        }
      ],
      "name": "createProvenanceMock",
      "outputs": [
        {
          "name": "index",
          "type": "uint256"
        }
      ],
      "payable": false,
      "stateMutability": "nonpayable",
      "type": "function",
      "signature": "0x0debc686"
    },
    {
      "constant": false,
      "inputs": [
        {
          "name": "_provId",
          "type": "uint256"
        },
        {
          "name": "_tokenId",
          "type": "uint256"
        },
        {
          "name": "_inputProvenanceIds",
          "type": "uint256[]"
        },
        {
          "name": "_context",
          "type": "string"
        }
      ],
      "name": "updateProvenanceMock",
      "outputs": [
        {
          "name": "success",
          "type": "bool"
        }
      ],
      "payable": false,
      "stateMutability": "nonpayable",
      "type": "function",
      "signature": "0xdc09f633"
    },
    {
      "constant": false,
      "inputs": [
        {
          "name": "_provId",
          "type": "uint256"
        }
      ],
      "name": "deleteProvenance",
      "outputs": [
        {
          "name": "success",
          "type": "bool"
        }
      ],
      "payable": false,
      "stateMutability": "nonpayable",
      "type": "function",
      "signature": "0xcd8b4372"
    },
    {
      "constant": false,
      "inputs": [
        {
          "name": "_tokenId",
          "type": "uint256"
        },
        {
          "name": "_context",
          "type": "string"
        },
        {
          "name": "_inputProvenanceIds",
          "type": "uint256[]"
        }
      ],
      "name": "createProvenance",
      "outputs": [
        {
          "name": "index",
          "type": "uint256"
        }
      ],
      "payable": false,
      "stateMutability": "nonpayable",
      "type": "function",
      "signature": "0x955f9be2"
    },
    {
      "constant": false,
      "inputs": [
        {
          "name": "_provId",
          "type": "uint256"
        },
        {
          "name": "_tokenId",
          "type": "uint256"
        },
        {
          "name": "_context",
          "type": "string"
        },
        {
          "name": "_inputProvenanceIds",
          "type": "uint256[]"
        }
      ],
      "name": "updateProvenance",
      "outputs": [
        {
          "name": "success",
          "type": "bool"
        }
      ],
      "payable": false,
      "stateMutability": "nonpayable",
      "type": "function",
      "signature": "0x9f2b7556"
    },
    {
      "constant": false,
      "inputs": [],
      "name": "requestToken",
      "outputs": [
        {
          "name": "tokenId",
          "type": "uint256"
        }
      ],
      "payable": false,
      "stateMutability": "nonpayable",
      "type": "function",
      "signature": "0x4d7ec628"
    },
    {
      "constant": true,
      "inputs": [
        {
          "name": "_tokenId",
          "type": "uint256"
        }
      ],
      "name": "numberOfProvenanceRecordsFor",
      "outputs": [
        {
          "name": "",
          "type": "uint256"
        }
      ],
      "payable": false,
      "stateMutability": "view",
      "type": "function",
      "signature": "0x6a8ce0b0"
    },
    {
      "constant": true,
      "inputs": [
        {
          "name": "_tokenId",
          "type": "uint256"
        },
        {
          "name": "_index",
          "type": "uint256"
        }
      ],
      "name": "provenanceOfTokenByIndex",
      "outputs": [
        {
          "name": "provId",
          "type": "uint256"
        }
      ],
      "payable": false,
      "stateMutability": "view",
      "type": "function",
      "signature": "0x8eb4eece"
    }
  ],
  "bytecode": "0x608060405234801561001057600080fd5b50611593806100206000396000f3fe6080604052600436106100ba576000357c0100000000000000000000000000000000000000000000000000000000900463ffffffff1680630debc686146100bf57806343cd6bf4146102435780634d7ec6281461029657806360f1233d146102c15780636a8ce0b0146103cb5780638eb4eece1461041a578063955f9be21461047357806395cc3963146105ed5780639f2b75561461063c578063a3ed8a21146107c4578063cd8b4372146107ef578063dc09f63314610842575b600080fd5b3480156100cb57600080fd5b5061022d600480360360808110156100e257600080fd5b8101908080359060200190929190803590602001909291908035906020019064010000000081111561011357600080fd5b82018360208201111561012557600080fd5b8035906020019184602083028401116401000000008311171561014757600080fd5b919080806020026020016040519081016040528093929190818152602001838360200280828437600081840152601f19601f820116905080830192505050505050509192919290803590602001906401000000008111156101a757600080fd5b8201836020820111156101b957600080fd5b803590602001918460018302840111640100000000831117156101db57600080fd5b91908080601f016020809104026020016040519081016040528093929190818152602001838380828437600081840152601f19601f8201169050808301925050505050505091929192905050506109ca565b6040518082815260200191505060405180910390f35b34801561024f57600080fd5b5061027c6004803603602081101561026657600080fd5b81019080803590602001909291905050506109e2565b604051808215151515815260200191505060405180910390f35b3480156102a257600080fd5b506102ab610a49565b6040518082815260200191505060405180910390f35b3480156102cd57600080fd5b506102fa600480360360208110156102e457600080fd5b8101908080359060200190929190505050610a5a565b604051808581526020018060200180602001848152602001838103835286818151815260200191508051906020019060200280838360005b8381101561034d578082015181840152602081019050610332565b50505050905001838103825285818151815260200191508051906020019080838360005b8381101561038c578082015181840152602081019050610371565b50505050905090810190601f1680156103b95780820380516001836020036101000a031916815260200191505b50965050505050505060405180910390f35b3480156103d757600080fd5b50610404600480360360208110156103ee57600080fd5b8101908080359060200190929190505050610c31565b6040518082815260200191505060405180910390f35b34801561042657600080fd5b5061045d6004803603604081101561043d57600080fd5b810190808035906020019092919080359060200190929190505050610c44565b6040518082815260200191505060405180910390f35b34801561047f57600080fd5b506105d76004803603606081101561049657600080fd5b8101908080359060200190929190803590602001906401000000008111156104bd57600080fd5b8201836020820111156104cf57600080fd5b803590602001918460018302840111640100000000831117156104f157600080fd5b91908080601f016020809104026020016040519081016040528093929190818152602001838380828437600081840152601f19601f8201169050808301925050505050505091929192908035906020019064010000000081111561055457600080fd5b82018360208201111561056657600080fd5b8035906020019184602083028401116401000000008311171561058857600080fd5b919080806020026020016040519081016040528093929190818152602001838360200280828437600081840152601f19601f820116905080830192505050505050509192919290505050610c58565b6040518082815260200191505060405180910390f35b3480156105f957600080fd5b506106266004803603602081101561061057600080fd5b8101908080359060200190929190505050610c6d565b6040518082815260200191505060405180910390f35b34801561064857600080fd5b506107aa6004803603608081101561065f57600080fd5b8101908080359060200190929190803590602001909291908035906020019064010000000081111561069057600080fd5b8201836020820111156106a257600080fd5b803590602001918460018302840111640100000000831117156106c457600080fd5b91908080601f016020809104026020016040519081016040528093929190818152602001838380828437600081840152601f19601f8201169050808301925050505050505091929192908035906020019064010000000081111561072757600080fd5b82018360208201111561073957600080fd5b8035906020019184602083028401116401000000008311171561075b57600080fd5b919080806020026020016040519081016040528093929190818152602001838360200280828437600081840152601f19601f820116905080830192505050505050509192919290505050610d0c565b604051808215151515815260200191505060405180910390f35b3480156107d057600080fd5b506107d9610d22565b6040518082815260200191505060405180910390f35b3480156107fb57600080fd5b506108286004803603602081101561081257600080fd5b8101908080359060200190929190505050610d2f565b604051808215151515815260200191505060405180910390f35b34801561084e57600080fd5b506109b06004803603608081101561086557600080fd5b8101908080359060200190929190803590602001909291908035906020019064010000000081111561089657600080fd5b8201836020820111156108a857600080fd5b803590602001918460208302840111640100000000831117156108ca57600080fd5b919080806020026020016040519081016040528093929190818152602001838360200280828437600081840152601f19601f8201169050808301925050505050505091929192908035906020019064010000000081111561092a57600080fd5b82018360208201111561093c57600080fd5b8035906020019184600183028401116401000000008311171561095e57600080fd5b91908080601f016020809104026020016040519081016040528093929190818152602001838380828437600081840152601f19601f820116905080830192505050505050509192919290505050610d41565b604051808215151515815260200191505060405180910390f35b60006109d885858585610d59565b9050949350505050565b600060018054905060008084815260200190815260200160002060010154101515610a105760009050610a44565b81600160008085815260200190815260200160002060010154815481101515610a3557fe5b90600052602060002001541490505b919050565b6000801515610a5757600080fd5b90565b60006060806000610a6a856109e2565b1515610ade576040517f08c379a00000000000000000000000000000000000000000000000000000000081526004018080602001828103825260108152602001807f4e6f6e2d6578697374656e74206b65790000000000000000000000000000000081525060200191505060405180910390fd5b600080868152602001908152602001600020600001546000808781526020019081526020016000206002016000808881526020019081526020016000206003016000808981526020019081526020016000206001015482805480602002602001604051908101604052809291908181526020018280548015610b7f57602002820191906000526020600020905b815481526020019060010190808311610b6b575b50505050509250818054600181600116156101000203166002900480601f016020809104026020016040519081016040528092919081815260200182805460018160011615610100020316600290048015610c1b5780601f10610bf057610100808354040283529160200191610c1b565b820191906000526020600020905b815481529060010190602001808311610bfe57829003601f168201915b5050505050915093509350935093509193509193565b6000801515610c3f57600080fd5b919050565b6000801515610c5257600080fd5b92915050565b6000801515610c6657600080fd5b9392505050565b600060018054905082101515610ceb576040517f08c379a00000000000000000000000000000000000000000000000000000000081526004018080602001828103825260128152602001807f4e6f6e2d6578697374656e7420696e646578000000000000000000000000000081525060200191505060405180910390fd5b600182815481101515610cfa57fe5b90600052602060002001549050919050565b6000801515610d1a57600080fd5b949350505050565b6000600180549050905090565b6000610d3a82610fb8565b9050919050565b6000610d4f8585858561124c565b9050949350505050565b6000610d64856109e2565b151515610dd9576040517f08c379a00000000000000000000000000000000000000000000000000000000081526004018080602001828103825260128152602001807f4b657920616c726561647920657869737473000000000000000000000000000081525060200191505060405180910390fd5b8360008087815260200190815260200160002060000181905550826000808781526020019081526020016000206002019080519060200190610e1c929190611449565b50816000808781526020019081526020016000206003019080519060200190610e46929190611496565b5060018086908060018154018082558091505090600182039060005260206000200160009091929091909150550360008087815260200190815260200160002060010181905550837f19d22bee5782f0874b6191c6f90bded29b1628be35dce6f7b153614d2af4789386600080898152602001908152602001600020600101548686604051808581526020018481526020018060200180602001838103835285818151815260200191508051906020019060200280838360005b83811015610f1b578082015181840152602081019050610f00565b50505050905001838103825284818151815260200191508051906020019080838360005b83811015610f5a578082015181840152602081019050610f3f565b50505050905090810190601f168015610f875780820380516001836020036101000a031916815260200191505b50965050505050505060405180910390a2600080868152602001908152602001600020600101549050949350505050565b6000610fc3826109e2565b1515611037576040517f08c379a00000000000000000000000000000000000000000000000000000000081526004018080602001828103825260108152602001807f4e6f6e2d6578697374656e74206b65790000000000000000000000000000000081525060200191505060405180910390fd5b6000806000848152602001908152602001600020600101549050600060018080805490500381548110151561106857fe5b906000526020600020015490508060018381548110151561108557fe5b9060005260206000200181905550816000808381526020019081526020016000206001018190555060018054809190600190036110c29190611516565b50837fe7e87ecee6790f02e298c5c71c0b9c8ba50a01f5cc25d62b93f77eb4e48aed9e836040518082815260200191505060405180910390a260008082815260200190815260200160002060000154817fab0254d684b4d3209da56743fdf6410fa89c36a133efb05f6a509cf78b9b8e258460008086815260200190815260200160002060020160008087815260200190815260200160002060030160405180848152602001806020018060200183810383528581815481526020019150805480156111ad57602002820191906000526020600020905b815481526020019060010190808311611199575b50508381038252848181546001816001161561010002031660029004815260200191508054600181600116156101000203166002900480156112305780601f1061120557610100808354040283529160200191611230565b820191906000526020600020905b81548152906001019060200180831161121357829003601f168201915b50509550505050505060405180910390a3600192505050919050565b6000611257856109e2565b15156112cb576040517f08c379a00000000000000000000000000000000000000000000000000000000081526004018080602001828103825260108152602001807f4e6f6e2d6578697374656e74206b65790000000000000000000000000000000081525060200191505060405180910390fd5b836000808781526020019081526020016000206000018190555082600080878152602001908152602001600020600201908051906020019061130e929190611449565b50816000808781526020019081526020016000206003019080519060200190611338929190611496565b5083857fab0254d684b4d3209da56743fdf6410fa89c36a133efb05f6a509cf78b9b8e25600080898152602001908152602001600020600101548686604051808481526020018060200180602001838103835285818151815260200191508051906020019060200280838360005b838110156113c15780820151818401526020810190506113a6565b50505050905001838103825284818151815260200191508051906020019080838360005b838110156114005780820151818401526020810190506113e5565b50505050905090810190601f16801561142d5780820380516001836020036101000a031916815260200191505b509550505050505060405180910390a360019050949350505050565b828054828255906000526020600020908101928215611485579160200282015b82811115611484578251825591602001919060010190611469565b5b5090506114929190611542565b5090565b828054600181600116156101000203166002900490600052602060002090601f016020900481019282601f106114d757805160ff1916838001178555611505565b82800160010185558215611505579182015b828111156115045782518255916020019190600101906114e9565b5b5090506115129190611542565b5090565b81548183558181111561153d5781836000526020600020918201910161153c9190611542565b5b505050565b61156491905b80821115611560576000816000905550600101611548565b5090565b9056fea165627a7a723058206ffe686a1d108a9faba7861d00699a67b54acd1d7e7fc8088b69eb70cdd9359c0029",
  "source": "pragma solidity ^0.5.0;\n\nimport \"./ProvenanceStorage.sol\";\nimport \"./ProvenanceCore.sol\";\n\n/**\n * @title ProvenanceStorageMock\n * This mock just provides public create/retrieve/update/delete functions for testing purposes.\n */\ncontract ProvenanceStorageMock is ProvenanceCore, ProvenanceStorage {\n\n    function createProvenanceMock(uint _provId, uint _tokenId, uint[] memory _inputProvenanceIds, string memory _context) public returns (uint index) {\n        return _createProvenance(_provId, _tokenId, _inputProvenanceIds, _context);\n    }\n\n    function updateProvenanceMock(uint _provId, uint _tokenId, uint[] memory _inputProvenanceIds, string memory _context) public returns (bool success) {\n        return _updateProvenance(_provId, _tokenId, _inputProvenanceIds, _context);\n    }\n\n    function deleteProvenance(uint _provId) public returns (bool success) {\n        return _deleteProvenance(_provId);\n    }\n\n    // Functions required by interface Provenance\n    function createProvenance(uint _tokenId, string memory _context, uint[] memory _inputProvenanceIds) public returns (uint index) {require(false);}\n    function updateProvenance(uint _provId, uint _tokenId, string memory _context, uint[] memory _inputProvenanceIds) public returns (bool success) {require(false);}\n    function requestToken() public returns (uint tokenId) {require(false);}\n    function numberOfProvenanceRecordsFor(uint _tokenId) public view returns (uint256) {require(false);}\n    function provenanceOfTokenByIndex(uint _tokenId, uint _index) public view returns (uint provId) {require(false);}\n\n\n}\n",
  "sourcePath": "/Users/martensigwart/Code/projects/iotprovenance/iotprovenance/contracts/ProvenanceStorageMock.sol",
  "compiler": {
    "name": "solc",
    "version": "0.5.0+commit.1d4f565a.Emscripten.clang"
  },
  "schemaVersion": "3.0.2",
  "updatedAt": "2019-10-22T18:28:07.426Z",
  "devdoc": {
    "methods": {},
    "title": "ProvenanceStorageMock This mock just provides public create/retrieve/update/delete functions for testing purposes."
  },
  "userdoc": {
    "methods": {}
  }
}