{
  "contractName": "ProvenanceExample",
  "abi": [
    {
      "constant": true,
      "inputs": [
        {
          "name": "interfaceId",
          "type": "bytes4"
        }
      ],
      "name": "supportsInterface",
      "outputs": [
        {
          "name": "",
          "type": "bool"
        }
      ],
      "payable": false,
      "stateMutability": "view",
      "type": "function",
      "signature": "0x01ffc9a7"
    },
    {
      "constant": true,
      "inputs": [],
      "name": "name",
      "outputs": [
        {
          "name": "",
          "type": "string"
        }
      ],
      "payable": false,
      "stateMutability": "view",
      "type": "function",
      "signature": "0x06fdde03"
    },
    {
      "constant": true,
      "inputs": [
        {
          "name": "tokenId",
          "type": "uint256"
        }
      ],
      "name": "getApproved",
      "outputs": [
        {
          "name": "",
          "type": "address"
        }
      ],
      "payable": false,
      "stateMutability": "view",
      "type": "function",
      "signature": "0x081812fc"
    },
    {
      "constant": false,
      "inputs": [
        {
          "name": "to",
          "type": "address"
        },
        {
          "name": "tokenId",
          "type": "uint256"
        }
      ],
      "name": "approve",
      "outputs": [],
      "payable": false,
      "stateMutability": "nonpayable",
      "type": "function",
      "signature": "0x095ea7b3"
    },
    {
      "constant": true,
      "inputs": [],
      "name": "totalSupply",
      "outputs": [
        {
          "name": "",
          "type": "uint256"
        }
      ],
      "payable": false,
      "stateMutability": "view",
      "type": "function",
      "signature": "0x18160ddd"
    },
    {
      "constant": false,
      "inputs": [
        {
          "name": "from",
          "type": "address"
        },
        {
          "name": "to",
          "type": "address"
        },
        {
          "name": "tokenId",
          "type": "uint256"
        }
      ],
      "name": "transferFrom",
      "outputs": [],
      "payable": false,
      "stateMutability": "nonpayable",
      "type": "function",
      "signature": "0x23b872dd"
    },
    {
      "constant": true,
      "inputs": [
        {
          "name": "owner",
          "type": "address"
        },
        {
          "name": "index",
          "type": "uint256"
        }
      ],
      "name": "tokenOfOwnerByIndex",
      "outputs": [
        {
          "name": "",
          "type": "uint256"
        }
      ],
      "payable": false,
      "stateMutability": "view",
      "type": "function",
      "signature": "0x2f745c59"
    },
    {
      "constant": false,
      "inputs": [
        {
          "name": "from",
          "type": "address"
        },
        {
          "name": "to",
          "type": "address"
        },
        {
          "name": "tokenId",
          "type": "uint256"
        }
      ],
      "name": "safeTransferFrom",
      "outputs": [],
      "payable": false,
      "stateMutability": "nonpayable",
      "type": "function",
      "signature": "0x42842e0e"
    },
    {
      "constant": true,
      "inputs": [
        {
          "name": "_provId",
          "type": "uint256"
        }
      ],
      "name": "isProvenance",
      "outputs": [
        {
          "name": "isIndeed",
          "type": "bool"
        }
      ],
      "payable": false,
      "stateMutability": "view",
      "type": "function",
      "signature": "0x43cd6bf4"
    },
    {
      "constant": true,
      "inputs": [
        {
          "name": "index",
          "type": "uint256"
        }
      ],
      "name": "tokenByIndex",
      "outputs": [
        {
          "name": "",
          "type": "uint256"
        }
      ],
      "payable": false,
      "stateMutability": "view",
      "type": "function",
      "signature": "0x4f6ccce7"
    },
    {
      "constant": true,
      "inputs": [
        {
          "name": "_provId",
          "type": "uint256"
        }
      ],
      "name": "getProvenance",
      "outputs": [
        {
          "name": "tokenId",
          "type": "uint256"
        },
        {
          "name": "inputProvenanceIds",
          "type": "uint256[]"
        },
        {
          "name": "context",
          "type": "string"
        },
        {
          "name": "index",
          "type": "uint256"
        }
      ],
      "payable": false,
      "stateMutability": "view",
      "type": "function",
      "signature": "0x60f1233d"
    },
    {
      "constant": true,
      "inputs": [
        {
          "name": "tokenId",
          "type": "uint256"
        }
      ],
      "name": "ownerOf",
      "outputs": [
        {
          "name": "",
          "type": "address"
        }
      ],
      "payable": false,
      "stateMutability": "view",
      "type": "function",
      "signature": "0x6352211e"
    },
    {
      "constant": true,
      "inputs": [
        {
          "name": "_tokenId",
          "type": "uint256"
        }
      ],
      "name": "numberOfProvenanceRecordsFor",
      "outputs": [
        {
          "name": "",
          "type": "uint256"
        }
      ],
      "payable": false,
      "stateMutability": "view",
      "type": "function",
      "signature": "0x6a8ce0b0"
    },
    {
      "constant": true,
      "inputs": [
        {
          "name": "owner",
          "type": "address"
        }
      ],
      "name": "balanceOf",
      "outputs": [
        {
          "name": "",
          "type": "uint256"
        }
      ],
      "payable": false,
      "stateMutability": "view",
      "type": "function",
      "signature": "0x70a08231"
    },
    {
      "constant": true,
      "inputs": [
        {
          "name": "_tokenId",
          "type": "uint256"
        },
        {
          "name": "_index",
          "type": "uint256"
        }
      ],
      "name": "provenanceOfTokenByIndex",
      "outputs": [
        {
          "name": "provId",
          "type": "uint256"
        }
      ],
      "payable": false,
      "stateMutability": "view",
      "type": "function",
      "signature": "0x8eb4eece"
    },
    {
      "constant": true,
      "inputs": [
        {
          "name": "_index",
          "type": "uint256"
        }
      ],
      "name": "getProvenanceIdAtIndex",
      "outputs": [
        {
          "name": "provId",
          "type": "uint256"
        }
      ],
      "payable": false,
      "stateMutability": "view",
      "type": "function",
      "signature": "0x95cc3963"
    },
    {
      "constant": true,
      "inputs": [],
      "name": "symbol",
      "outputs": [
        {
          "name": "",
          "type": "string"
        }
      ],
      "payable": false,
      "stateMutability": "view",
      "type": "function",
      "signature": "0x95d89b41"
    },
    {
      "constant": false,
      "inputs": [
        {
          "name": "to",
          "type": "address"
        },
        {
          "name": "approved",
          "type": "bool"
        }
      ],
      "name": "setApprovalForAll",
      "outputs": [],
      "payable": false,
      "stateMutability": "nonpayable",
      "type": "function",
      "signature": "0xa22cb465"
    },
    {
      "constant": true,
      "inputs": [],
      "name": "getProvenanceCount",
      "outputs": [
        {
          "name": "count",
          "type": "uint256"
        }
      ],
      "payable": false,
      "stateMutability": "view",
      "type": "function",
      "signature": "0xa3ed8a21"
    },
    {
      "constant": false,
      "inputs": [
        {
          "name": "from",
          "type": "address"
        },
        {
          "name": "to",
          "type": "address"
        },
        {
          "name": "tokenId",
          "type": "uint256"
        },
        {
          "name": "_data",
          "type": "bytes"
        }
      ],
      "name": "safeTransferFrom",
      "outputs": [],
      "payable": false,
      "stateMutability": "nonpayable",
      "type": "function",
      "signature": "0xb88d4fde"
    },
    {
      "constant": true,
      "inputs": [
        {
          "name": "tokenId",
          "type": "uint256"
        }
      ],
      "name": "tokenURI",
      "outputs": [
        {
          "name": "",
          "type": "string"
        }
      ],
      "payable": false,
      "stateMutability": "view",
      "type": "function",
      "signature": "0xc87b56dd"
    },
    {
      "constant": true,
      "inputs": [
        {
          "name": "owner",
          "type": "address"
        },
        {
          "name": "operator",
          "type": "address"
        }
      ],
      "name": "isApprovedForAll",
      "outputs": [
        {
          "name": "",
          "type": "bool"
        }
      ],
      "payable": false,
      "stateMutability": "view",
      "type": "function",
      "signature": "0xe985e9c5"
    },
    {
      "anonymous": false,
      "inputs": [
        {
          "indexed": true,
          "name": "from",
          "type": "address"
        },
        {
          "indexed": true,
          "name": "to",
          "type": "address"
        },
        {
          "indexed": true,
          "name": "tokenId",
          "type": "uint256"
        }
      ],
      "name": "Transfer",
      "type": "event",
      "signature": "0xddf252ad1be2c89b69c2b068fc378daa952ba7f163c4a11628f55a4df523b3ef"
    },
    {
      "anonymous": false,
      "inputs": [
        {
          "indexed": true,
          "name": "owner",
          "type": "address"
        },
        {
          "indexed": true,
          "name": "approved",
          "type": "address"
        },
        {
          "indexed": true,
          "name": "tokenId",
          "type": "uint256"
        }
      ],
      "name": "Approval",
      "type": "event",
      "signature": "0x8c5be1e5ebec7d5bd14f71427d1e84f3dd0314c0f7b2291e5b200ac8c7c3b925"
    },
    {
      "anonymous": false,
      "inputs": [
        {
          "indexed": true,
          "name": "owner",
          "type": "address"
        },
        {
          "indexed": true,
          "name": "operator",
          "type": "address"
        },
        {
          "indexed": false,
          "name": "approved",
          "type": "bool"
        }
      ],
      "name": "ApprovalForAll",
      "type": "event",
      "signature": "0x17307eab39ab6107e8899845ad3d59bd9653f200f220920489ca2b5937696c31"
    },
    {
      "anonymous": false,
      "inputs": [
        {
          "indexed": false,
          "name": "provId",
          "type": "uint256"
        },
        {
          "indexed": false,
          "name": "index",
          "type": "uint256"
        },
        {
          "indexed": true,
          "name": "tokenId",
          "type": "uint256"
        },
        {
          "indexed": false,
          "name": "inputProvenanceIds",
          "type": "uint256[]"
        },
        {
          "indexed": false,
          "name": "context",
          "type": "string"
        }
      ],
      "name": "CreateProvenanceEvent",
      "type": "event",
      "signature": "0x19d22bee5782f0874b6191c6f90bded29b1628be35dce6f7b153614d2af47893"
    },
    {
      "anonymous": false,
      "inputs": [
        {
          "indexed": true,
          "name": "provId",
          "type": "uint256"
        },
        {
          "indexed": false,
          "name": "index",
          "type": "uint256"
        },
        {
          "indexed": true,
          "name": "tokenId",
          "type": "uint256"
        },
        {
          "indexed": false,
          "name": "inputProvenanceIds",
          "type": "uint256[]"
        },
        {
          "indexed": false,
          "name": "context",
          "type": "string"
        }
      ],
      "name": "UpdateProvenanceEvent",
      "type": "event",
      "signature": "0xab0254d684b4d3209da56743fdf6410fa89c36a133efb05f6a509cf78b9b8e25"
    },
    {
      "anonymous": false,
      "inputs": [
        {
          "indexed": true,
          "name": "provId",
          "type": "uint256"
        },
        {
          "indexed": false,
          "name": "index",
          "type": "uint256"
        }
      ],
      "name": "DeleteProvenanceEvent",
      "type": "event",
      "signature": "0xe7e87ecee6790f02e298c5c71c0b9c8ba50a01f5cc25d62b93f77eb4e48aed9e"
    },
    {
      "constant": false,
      "inputs": [
        {
          "name": "_tokenId",
          "type": "uint256"
        },
        {
          "name": "_context",
          "type": "string"
        },
        {
          "name": "_inputProvenanceIds",
          "type": "uint256[]"
        }
      ],
      "name": "createProvenance",
      "outputs": [
        {
          "name": "index",
          "type": "uint256"
        }
      ],
      "payable": false,
      "stateMutability": "nonpayable",
      "type": "function",
      "signature": "0x955f9be2"
    },
    {
      "constant": false,
      "inputs": [
        {
          "name": "_provId",
          "type": "uint256"
        },
        {
          "name": "_tokenId",
          "type": "uint256"
        },
        {
          "name": "_context",
          "type": "string"
        },
        {
          "name": "_inputProvenanceIds",
          "type": "uint256[]"
        }
      ],
      "name": "updateProvenance",
      "outputs": [
        {
          "name": "success",
          "type": "bool"
        }
      ],
      "payable": false,
      "stateMutability": "nonpayable",
      "type": "function",
      "signature": "0x9f2b7556"
    },
    {
      "constant": false,
      "inputs": [
        {
          "name": "_provId",
          "type": "uint256"
        }
      ],
      "name": "deleteProvenance",
      "outputs": [
        {
          "name": "success",
          "type": "bool"
        }
      ],
      "payable": false,
      "stateMutability": "nonpayable",
      "type": "function",
      "signature": "0xcd8b4372"
    },
    {
      "constant": false,
      "inputs": [],
      "name": "requestToken",
      "outputs": [
        {
          "name": "tokenId",
          "type": "uint256"
        }
      ],
      "payable": false,
      "stateMutability": "nonpayable",
      "type": "function",
      "signature": "0x4d7ec628"
    }
  ],
  "bytecode": "0x60806040526040805190810160405280600f81526020017f50726f76656e616e6365546f6b656e00000000000000000000000000000000008152506040805190810160405280600481526020017f50524f56000000000000000000000000000000000000000000000000000000008152508181620000af6301ffc9a77c010000000000000000000000000000000000000000000000000000000002620001a2640100000000026401000000009004565b620000ec6380ac58cd7c010000000000000000000000000000000000000000000000000000000002620001a2640100000000026401000000009004565b816005908051906020019062000104929190620002c9565b5080600690805190602001906200011d929190620002c9565b506200015b635b5e139f7c010000000000000000000000000000000000000000000000000000000002620001a2640100000000026401000000009004565b50506200019a63780e9d637c010000000000000000000000000000000000000000000000000000000002620001a2640100000000026401000000009004565b505062000378565b63ffffffff7c010000000000000000000000000000000000000000000000000000000002817bffffffffffffffffffffffffffffffffffffffffffffffffffffffff1916141515156200025d576040517f08c379a000000000000000000000000000000000000000000000000000000000815260040180806020018281038252601c8152602001807f4552433136353a20696e76616c696420696e746572666163652069640000000081525060200191505060405180910390fd5b6001600080837bffffffffffffffffffffffffffffffffffffffffffffffffffffffff19167bffffffffffffffffffffffffffffffffffffffffffffffffffffffff1916815260200190815260200160002060006101000a81548160ff02191690831515021790555050565b828054600181600116156101000203166002900490600052602060002090601f016020900481019282601f106200030c57805160ff19168380011785556200033d565b828001600101855582156200033d579182015b828111156200033c5782518255916020019190600101906200031f565b5b5090506200034c919062000350565b5090565b6200037591905b808211156200037157600081600090555060010162000357565b5090565b90565b613a4380620003886000396000f3fe608060405260043610610154576000357c0100000000000000000000000000000000000000000000000000000000900463ffffffff16806301ffc9a71461015957806306fdde03146101cb578063081812fc1461025b578063095ea7b3146102d657806318160ddd1461033157806323b872dd1461035c5780632f745c59146103d757806342842e0e1461044657806343cd6bf4146104c15780634d7ec628146105145780634f6ccce71461053f57806360f1233d1461058e5780636352211e146106985780636a8ce0b01461071357806370a08231146107625780638eb4eece146107c7578063955f9be21461082057806395cc39631461099a57806395d89b41146109e95780639f2b755614610a79578063a22cb46514610c01578063a3ed8a2114610c5e578063b88d4fde14610c89578063c87b56dd14610d9b578063cd8b437214610e4f578063e985e9c514610ea2575b600080fd5b34801561016557600080fd5b506101b16004803603602081101561017c57600080fd5b8101908080357bffffffffffffffffffffffffffffffffffffffffffffffffffffffff19169060200190929190505050610f2b565b604051808215151515815260200191505060405180910390f35b3480156101d757600080fd5b506101e0610f92565b6040518080602001828103825283818151815260200191508051906020019080838360005b83811015610220578082015181840152602081019050610205565b50505050905090810190601f16801561024d5780820380516001836020036101000a031916815260200191505b509250505060405180910390f35b34801561026757600080fd5b506102946004803603602081101561027e57600080fd5b8101908080359060200190929190505050611034565b604051808273ffffffffffffffffffffffffffffffffffffffff1673ffffffffffffffffffffffffffffffffffffffff16815260200191505060405180910390f35b3480156102e257600080fd5b5061032f600480360360408110156102f957600080fd5b81019080803573ffffffffffffffffffffffffffffffffffffffff16906020019092919080359060200190929190505050611114565b005b34801561033d57600080fd5b50610346611377565b6040518082815260200191505060405180910390f35b34801561036857600080fd5b506103d56004803603606081101561037f57600080fd5b81019080803573ffffffffffffffffffffffffffffffffffffffff169060200190929190803573ffffffffffffffffffffffffffffffffffffffff16906020019092919080359060200190929190505050611384565b005b3480156103e357600080fd5b50610430600480360360408110156103fa57600080fd5b81019080803573ffffffffffffffffffffffffffffffffffffffff16906020019092919080359060200190929190505050611438565b6040518082815260200191505060405180910390f35b34801561045257600080fd5b506104bf6004803603606081101561046957600080fd5b81019080803573ffffffffffffffffffffffffffffffffffffffff169060200190929190803573ffffffffffffffffffffffffffffffffffffffff1690602001909291908035906020019092919050505061153e565b005b3480156104cd57600080fd5b506104fa600480360360208110156104e457600080fd5b810190808035906020019092919050505061155f565b604051808215151515815260200191505060405180910390f35b34801561052057600080fd5b506105296115c8565b6040518082815260200191505060405180910390f35b34801561054b57600080fd5b506105786004803603602081101561056257600080fd5b81019080803590602001909291905050506115d7565b6040518082815260200191505060405180910390f35b34801561059a57600080fd5b506105c7600480360360208110156105b157600080fd5b810190808035906020019092919050505061169e565b604051808581526020018060200180602001848152602001838103835286818151815260200191508051906020019060200280838360005b8381101561061a5780820151818401526020810190506105ff565b50505050905001838103825285818151815260200191508051906020019080838360005b8381101561065957808201518184015260208101905061063e565b50505050905090810190601f1680156106865780820380516001836020036101000a031916815260200191505b50965050505050505060405180910390f35b3480156106a457600080fd5b506106d1600480360360208110156106bb57600080fd5b8101908080359060200190929190505050611879565b604051808273ffffffffffffffffffffffffffffffffffffffff1673ffffffffffffffffffffffffffffffffffffffff16815260200191505060405180910390f35b34801561071f57600080fd5b5061074c6004803603602081101561073657600080fd5b8101908080359060200190929190505050611986565b6040518082815260200191505060405180910390f35b34801561076e57600080fd5b506107b16004803603602081101561078557600080fd5b81019080803573ffffffffffffffffffffffffffffffffffffffff1690602001909291905050506119a6565b6040518082815260200191505060405180910390f35b3480156107d357600080fd5b5061080a600480360360408110156107ea57600080fd5b810190808035906020019092919080359060200190929190505050611ac0565b6040518082815260200191505060405180910390f35b34801561082c57600080fd5b506109846004803603606081101561084357600080fd5b81019080803590602001909291908035906020019064010000000081111561086a57600080fd5b82018360208201111561087c57600080fd5b8035906020019184600183028401116401000000008311171561089e57600080fd5b91908080601f016020809104026020016040519081016040528093929190818152602001838380828437600081840152601f19601f8201169050808301925050505050505091929192908035906020019064010000000081111561090157600080fd5b82018360208201111561091357600080fd5b8035906020019184602083028401116401000000008311171561093557600080fd5b919080806020026020016040519081016040528093929190818152602001838360200280828437600081840152601f19601f820116905080830192505050505050509192919290505050611b0b565b6040518082815260200191505060405180910390f35b3480156109a657600080fd5b506109d3600480360360208110156109bd57600080fd5b8101908080359060200190929190505050611b21565b6040518082815260200191505060405180910390f35b3480156109f557600080fd5b506109fe611bc0565b6040518080602001828103825283818151815260200191508051906020019080838360005b83811015610a3e578082015181840152602081019050610a23565b50505050905090810190601f168015610a6b5780820380516001836020036101000a031916815260200191505b509250505060405180910390f35b348015610a8557600080fd5b50610be760048036036080811015610a9c57600080fd5b81019080803590602001909291908035906020019092919080359060200190640100000000811115610acd57600080fd5b820183602082011115610adf57600080fd5b80359060200191846001830284011164010000000083111715610b0157600080fd5b91908080601f016020809104026020016040519081016040528093929190818152602001838380828437600081840152601f19601f82011690508083019250505050505050919291929080359060200190640100000000811115610b6457600080fd5b820183602082011115610b7657600080fd5b80359060200191846020830284011164010000000083111715610b9857600080fd5b919080806020026020016040519081016040528093929190818152602001838360200280828437600081840152601f19601f820116905080830192505050505050509192919290505050611c62565b604051808215151515815260200191505060405180910390f35b348015610c0d57600080fd5b50610c5c60048036036040811015610c2457600080fd5b81019080803573ffffffffffffffffffffffffffffffffffffffff169060200190929190803515159060200190929190505050611c7a565b005b348015610c6a57600080fd5b50610c73611e1f565b6040518082815260200191505060405180910390f35b348015610c9557600080fd5b50610d9960048036036080811015610cac57600080fd5b81019080803573ffffffffffffffffffffffffffffffffffffffff169060200190929190803573ffffffffffffffffffffffffffffffffffffffff1690602001909291908035906020019092919080359060200190640100000000811115610d1357600080fd5b820183602082011115610d2557600080fd5b80359060200191846001830284011164010000000083111715610d4757600080fd5b91908080601f016020809104026020016040519081016040528093929190818152602001838380828437600081840152601f19601f820116905080830192505050505050509192919290505050611e2c565b005b348015610da757600080fd5b50610dd460048036036020811015610dbe57600080fd5b8101908080359060200190929190505050611ee3565b6040518080602001828103825283818151815260200191508051906020019080838360005b83811015610e14578082015181840152602081019050610df9565b50505050905090810190601f168015610e415780820380516001836020036101000a031916815260200191505b509250505060405180910390f35b348015610e5b57600080fd5b50610e8860048036036020811015610e7257600080fd5b810190808035906020019092919050505061203b565b604051808215151515815260200191505060405180910390f35b348015610eae57600080fd5b50610f1160048036036040811015610ec557600080fd5b81019080803573ffffffffffffffffffffffffffffffffffffffff169060200190929190803573ffffffffffffffffffffffffffffffffffffffff16906020019092919050505061204d565b604051808215151515815260200191505060405180910390f35b6000806000837bffffffffffffffffffffffffffffffffffffffffffffffffffffffff19167bffffffffffffffffffffffffffffffffffffffffffffffffffffffff1916815260200190815260200160002060009054906101000a900460ff169050919050565b606060058054600181600116156101000203166002900480601f01602080910402602001604051908101604052809291908181526020018280546001816001161561010002031660029004801561102a5780601f10610fff5761010080835404028352916020019161102a565b820191906000526020600020905b81548152906001019060200180831161100d57829003601f168201915b5050505050905090565b600061103f826120e1565b15156110d9576040517f08c379a000000000000000000000000000000000000000000000000000000000815260040180806020018281038252602c8152602001807f4552433732313a20617070726f76656420717565727920666f72206e6f6e657881526020017f697374656e7420746f6b656e000000000000000000000000000000000000000081525060400191505060405180910390fd5b6002600083815260200190815260200160002060009054906101000a900473ffffffffffffffffffffffffffffffffffffffff169050919050565b600061111f82611879565b90508073ffffffffffffffffffffffffffffffffffffffff168373ffffffffffffffffffffffffffffffffffffffff16141515156111eb576040517f08c379a00000000000000000000000000000000000000000000000000000000081526004018080602001828103825260218152602001807f4552433732313a20617070726f76616c20746f2063757272656e74206f776e6581526020017f720000000000000000000000000000000000000000000000000000000000000081525060400191505060405180910390fd5b8073ffffffffffffffffffffffffffffffffffffffff163373ffffffffffffffffffffffffffffffffffffffff16148061122b575061122a813361204d565b5b15156112c5576040517f08c379a00000000000000000000000000000000000000000000000000000000081526004018080602001828103825260388152602001807f4552433732313a20617070726f76652063616c6c6572206973206e6f74206f7781526020017f6e6572206e6f7220617070726f76656420666f7220616c6c000000000000000081525060400191505060405180910390fd5b826002600084815260200190815260200160002060006101000a81548173ffffffffffffffffffffffffffffffffffffffff021916908373ffffffffffffffffffffffffffffffffffffffff160217905550818373ffffffffffffffffffffffffffffffffffffffff168273ffffffffffffffffffffffffffffffffffffffff167f8c5be1e5ebec7d5bd14f71427d1e84f3dd0314c0f7b2291e5b200ac8c7c3b92560405160405180910390a4505050565b6000600a80549050905090565b61138e3382612153565b1515611428576040517f08c379a00000000000000000000000000000000000000000000000000000000081526004018080602001828103825260318152602001807f4552433732313a207472616e736665722063616c6c6572206973206e6f74206f81526020017f776e6572206e6f7220617070726f76656400000000000000000000000000000081525060400191505060405180910390fd5b61143383838361228c565b505050565b6000611443836119a6565b821015156114df576040517f08c379a000000000000000000000000000000000000000000000000000000000815260040180806020018281038252602b8152602001807f455243373231456e756d657261626c653a206f776e657220696e646578206f7581526020017f74206f6620626f756e647300000000000000000000000000000000000000000081525060400191505060405180910390fd5b600860008473ffffffffffffffffffffffffffffffffffffffff1673ffffffffffffffffffffffffffffffffffffffff1681526020019081526020016000208281548110151561152b57fe5b9060005260206000200154905092915050565b61155a8383836020604051908101604052806000815250611e2c565b505050565b6000600d80549050600c60008481526020019081526020016000206001015410151561158e57600090506115c3565b81600d600c6000858152602001908152602001600020600101548154811015156115b457fe5b90600052602060002001541490505b919050565b60006115d26122b0565b905090565b60006115e1611377565b8210151561167d576040517f08c379a000000000000000000000000000000000000000000000000000000000815260040180806020018281038252602c8152602001807f455243373231456e756d657261626c653a20676c6f62616c20696e646578206f81526020017f7574206f6620626f756e6473000000000000000000000000000000000000000081525060400191505060405180910390fd5b600a8281548110151561168c57fe5b90600052602060002001549050919050565b600060608060006116ae8561155f565b1515611722576040517f08c379a00000000000000000000000000000000000000000000000000000000081526004018080602001828103825260108152602001807f4e6f6e2d6578697374656e74206b65790000000000000000000000000000000081525060200191505060405180910390fd5b600c600086815260200190815260200160002060000154600c6000878152602001908152602001600020600201600c6000888152602001908152602001600020600301600c600089815260200190815260200160002060010154828054806020026020016040519081016040528092919081815260200182805480156117c757602002820191906000526020600020905b8154815260200190600101908083116117b3575b50505050509250818054600181600116156101000203166002900480601f0160208091040260200160405190810160405280929190818152602001828054600181600116156101000203166002900480156118635780601f1061183857610100808354040283529160200191611863565b820191906000526020600020905b81548152906001019060200180831161184657829003601f168201915b5050505050915093509350935093509193509193565b6000806001600084815260200190815260200160002060009054906101000a900473ffffffffffffffffffffffffffffffffffffffff169050600073ffffffffffffffffffffffffffffffffffffffff168173ffffffffffffffffffffffffffffffffffffffff161415151561197d576040517f08c379a00000000000000000000000000000000000000000000000000000000081526004018080602001828103825260298152602001807f4552433732313a206f776e657220717565727920666f72206e6f6e657869737481526020017f656e7420746f6b656e000000000000000000000000000000000000000000000081525060400191505060405180910390fd5b80915050919050565b600060106000838152602001908152602001600020805490509050919050565b60008073ffffffffffffffffffffffffffffffffffffffff168273ffffffffffffffffffffffffffffffffffffffff1614151515611a72576040517f08c379a000000000000000000000000000000000000000000000000000000000815260040180806020018281038252602a8152602001807f4552433732313a2062616c616e636520717565727920666f7220746865207a6581526020017f726f20616464726573730000000000000000000000000000000000000000000081525060400191505060405180910390fd5b611ab9600360008473ffffffffffffffffffffffffffffffffffffffff1673ffffffffffffffffffffffffffffffffffffffff1681526020019081526020016000206122ce565b9050919050565b6000611acb83611986565b82101515611ad857600080fd5b6010600084815260200190815260200160002082815481101515611af857fe5b9060005260206000200154905092915050565b6000611b188484846122dc565b90509392505050565b6000600d8054905082101515611b9f576040517f08c379a00000000000000000000000000000000000000000000000000000000081526004018080602001828103825260128152602001807f4e6f6e2d6578697374656e7420696e646578000000000000000000000000000081525060200191505060405180910390fd5b600d82815481101515611bae57fe5b90600052602060002001549050919050565b606060068054600181600116156101000203166002900480601f016020809104026020016040519081016040528092919081815260200182805460018160011615610100020316600290048015611c585780601f10611c2d57610100808354040283529160200191611c58565b820191906000526020600020905b815481529060010190602001808311611c3b57829003601f168201915b5050505050905090565b6000611c7085858585612369565b9050949350505050565b3373ffffffffffffffffffffffffffffffffffffffff168273ffffffffffffffffffffffffffffffffffffffff1614151515611d1e576040517f08c379a00000000000000000000000000000000000000000000000000000000081526004018080602001828103825260198152602001807f4552433732313a20617070726f766520746f2063616c6c65720000000000000081525060200191505060405180910390fd5b80600460003373ffffffffffffffffffffffffffffffffffffffff1673ffffffffffffffffffffffffffffffffffffffff16815260200190815260200160002060008473ffffffffffffffffffffffffffffffffffffffff1673ffffffffffffffffffffffffffffffffffffffff16815260200190815260200160002060006101000a81548160ff0219169083151502179055508173ffffffffffffffffffffffffffffffffffffffff163373ffffffffffffffffffffffffffffffffffffffff167f17307eab39ab6107e8899845ad3d59bd9653f200f220920489ca2b5937696c3183604051808215151515815260200191505060405180910390a35050565b6000600d80549050905090565b611e37848484611384565b611e4384848484612451565b1515611edd576040517f08c379a00000000000000000000000000000000000000000000000000000000081526004018080602001828103825260328152602001807f4552433732313a207472616e7366657220746f206e6f6e20455243373231526581526020017f63656976657220696d706c656d656e746572000000000000000000000000000081525060400191505060405180910390fd5b50505050565b6060611eee826120e1565b1515611f88576040517f08c379a000000000000000000000000000000000000000000000000000000000815260040180806020018281038252602f8152602001807f4552433732314d657461646174613a2055524920717565727920666f72206e6f81526020017f6e6578697374656e7420746f6b656e000000000000000000000000000000000081525060400191505060405180910390fd5b600760008381526020019081526020016000208054600181600116156101000203166002900480601f01602080910402602001604051908101604052809291908181526020018280546001816001161561010002031660029004801561202f5780601f106120045761010080835404028352916020019161202f565b820191906000526020600020905b81548152906001019060200180831161201257829003601f168201915b50505050509050919050565b600061204682612674565b9050919050565b6000600460008473ffffffffffffffffffffffffffffffffffffffff1673ffffffffffffffffffffffffffffffffffffffff16815260200190815260200160002060008373ffffffffffffffffffffffffffffffffffffffff1673ffffffffffffffffffffffffffffffffffffffff16815260200190815260200160002060009054906101000a900460ff16905092915050565b6000806001600084815260200190815260200160002060009054906101000a900473ffffffffffffffffffffffffffffffffffffffff169050600073ffffffffffffffffffffffffffffffffffffffff168173ffffffffffffffffffffffffffffffffffffffff161415915050919050565b600061215e826120e1565b15156121f8576040517f08c379a000000000000000000000000000000000000000000000000000000000815260040180806020018281038252602c8152602001807f4552433732313a206f70657261746f7220717565727920666f72206e6f6e657881526020017f697374656e7420746f6b656e000000000000000000000000000000000000000081525060400191505060405180910390fd5b600061220383611879565b90508073ffffffffffffffffffffffffffffffffffffffff168473ffffffffffffffffffffffffffffffffffffffff16148061227257508373ffffffffffffffffffffffffffffffffffffffff1661225a84611034565b73ffffffffffffffffffffffffffffffffffffffff16145b806122835750612282818561204d565b5b91505092915050565b6122978383836126e2565b6122a183826129c7565b6122ab8282612b6b565b505050565b6000806122bb612c32565b90506122c73382612c48565b8091505090565b600081600001549050919050565b60006122e7846120e1565b15156122f257600080fd5b3373ffffffffffffffffffffffffffffffffffffffff1661231285611879565b73ffffffffffffffffffffffffffffffffffffffff1614151561233457600080fd5b61233d82612c69565b6000612347612cb4565b90506123538582612cca565b61235f81868587612d24565b9150509392505050565b6000612374846120e1565b151561237f57600080fd5b3373ffffffffffffffffffffffffffffffffffffffff1661239f85611879565b73ffffffffffffffffffffffffffffffffffffffff161415156123c157600080fd5b60006123cc8661169e565b50505090503373ffffffffffffffffffffffffffffffffffffffff166123f182611879565b73ffffffffffffffffffffffffffffffffffffffff1614151561241357600080fd5b61241c83612c69565b848114151561243a5761242f8187612f8a565b6124398587612cca565b5b6124468686858761305e565b915050949350505050565b60006124728473ffffffffffffffffffffffffffffffffffffffff1661325f565b1515612481576001905061266c565b60008473ffffffffffffffffffffffffffffffffffffffff1663150b7a02338887876040518563ffffffff167c0100000000000000000000000000000000000000000000000000000000028152600401808573ffffffffffffffffffffffffffffffffffffffff1673ffffffffffffffffffffffffffffffffffffffff1681526020018473ffffffffffffffffffffffffffffffffffffffff1673ffffffffffffffffffffffffffffffffffffffff16815260200183815260200180602001828103825283818151815260200191508051906020019080838360005b8381101561257857808201518184015260208101905061255d565b50505050905090810190601f1680156125a55780820380516001836020036101000a031916815260200191505b5095505050505050602060405180830381600087803b1580156125c757600080fd5b505af11580156125db573d6000803e3d6000fd5b505050506040513d60208110156125f157600080fd5b8101908080519060200190929190505050905063150b7a027c0100000000000000000000000000000000000000000000000000000000027bffffffffffffffffffffffffffffffffffffffffffffffffffffffff1916817bffffffffffffffffffffffffffffffffffffffffffffffffffffffff1916149150505b949350505050565b6000806126808361169e565b50505090503373ffffffffffffffffffffffffffffffffffffffff166126a582611879565b73ffffffffffffffffffffffffffffffffffffffff161415156126c757600080fd5b6126d18184612f8a565b6126da83613272565b915050919050565b8273ffffffffffffffffffffffffffffffffffffffff1661270282611879565b73ffffffffffffffffffffffffffffffffffffffff161415156127b3576040517f08c379a00000000000000000000000000000000000000000000000000000000081526004018080602001828103825260298152602001807f4552433732313a207472616e73666572206f6620746f6b656e2074686174206981526020017f73206e6f74206f776e000000000000000000000000000000000000000000000081525060400191505060405180910390fd5b600073ffffffffffffffffffffffffffffffffffffffff168273ffffffffffffffffffffffffffffffffffffffff161415151561287e576040517f08c379a00000000000000000000000000000000000000000000000000000000081526004018080602001828103825260248152602001807f4552433732313a207472616e7366657220746f20746865207a65726f2061646481526020017f726573730000000000000000000000000000000000000000000000000000000081525060400191505060405180910390fd5b6128878161350d565b6128ce600360008573ffffffffffffffffffffffffffffffffffffffff1673ffffffffffffffffffffffffffffffffffffffff1681526020019081526020016000206135cd565b612915600360008473ffffffffffffffffffffffffffffffffffffffff1673ffffffffffffffffffffffffffffffffffffffff1681526020019081526020016000206135f0565b816001600083815260200190815260200160002060006101000a81548173ffffffffffffffffffffffffffffffffffffffff021916908373ffffffffffffffffffffffffffffffffffffffff160217905550808273ffffffffffffffffffffffffffffffffffffffff168473ffffffffffffffffffffffffffffffffffffffff167fddf252ad1be2c89b69c2b068fc378daa952ba7f163c4a11628f55a4df523b3ef60405160405180910390a4505050565b6000612a1f6001600860008673ffffffffffffffffffffffffffffffffffffffff1673ffffffffffffffffffffffffffffffffffffffff1681526020019081526020016000208054905061360690919063ffffffff16565b90506000600960008481526020019081526020016000205490508181141515612b12576000600860008673ffffffffffffffffffffffffffffffffffffffff1673ffffffffffffffffffffffffffffffffffffffff16815260200190815260200160002083815481101515612a9057fe5b9060005260206000200154905080600860008773ffffffffffffffffffffffffffffffffffffffff1673ffffffffffffffffffffffffffffffffffffffff16815260200190815260200160002083815481101515612aea57fe5b9060005260206000200181905550816009600083815260200190815260200160002081905550505b600860008573ffffffffffffffffffffffffffffffffffffffff1673ffffffffffffffffffffffffffffffffffffffff168152602001908152602001600020805480919060019003612b6491906138f9565b5050505050565b600860008373ffffffffffffffffffffffffffffffffffffffff1673ffffffffffffffffffffffffffffffffffffffff168152602001908152602001600020805490506009600083815260200190815260200160002081905550600860008373ffffffffffffffffffffffffffffffffffffffff1673ffffffffffffffffffffffffffffffffffffffff1681526020019081526020016000208190806001815401808255809150509060018203906000526020600020016000909192909190915055505050565b6000600f60008154600101919050819055905090565b612c528282613691565b612c5c8282612b6b565b612c65816138ad565b5050565b60008090505b8151811015612cb057612c988282815181101515612c8957fe5b9060200190602002015161155f565b1515612ca357600080fd5b8080600101915050612c6f565b5050565b6000600e60008154600101919050819055905090565b60016010600084815260200190815260200160002082908060018154018082558091505090600182039060005260206000200160009091929091909150550360116000838152602001908152602001600020819055505050565b6000612d2f8561155f565b151515612da4576040517f08c379a00000000000000000000000000000000000000000000000000000000081526004018080602001828103825260128152602001807f4b657920616c726561647920657869737473000000000000000000000000000081525060200191505060405180910390fd5b83600c60008781526020019081526020016000206000018190555082600c60008781526020019081526020016000206002019080519060200190612de9929190613925565b5081600c60008781526020019081526020016000206003019080519060200190612e14929190613972565b506001600d869080600181540180825580915050906001820390600052602060002001600090919290919091505503600c600087815260200190815260200160002060010181905550837f19d22bee5782f0874b6191c6f90bded29b1628be35dce6f7b153614d2af4789386600c6000898152602001908152602001600020600101548686604051808581526020018481526020018060200180602001838103835285818151815260200191508051906020019060200280838360005b83811015612eec578082015181840152602081019050612ed1565b50505050905001838103825284818151815260200191508051906020019080838360005b83811015612f2b578082015181840152602081019050612f10565b50505050905090810190601f168015612f585780820380516001836020036101000a031916815260200191505b50965050505050505060405180910390a2600c6000868152602001908152602001600020600101549050949350505050565b6000601160008381526020019081526020016000205490506000601060008581526020019081526020016000206001601060008781526020019081526020016000208054905003815481101515612fdd57fe5b9060005260206000200154905080601060008681526020019081526020016000208381548110151561300b57fe5b90600052602060002001819055508160116000838152602001908152602001600020819055506010600085815260200190815260200160002080548091906001900361305791906138f9565b5050505050565b60006130698561155f565b15156130dd576040517f08c379a00000000000000000000000000000000000000000000000000000000081526004018080602001828103825260108152602001807f4e6f6e2d6578697374656e74206b65790000000000000000000000000000000081525060200191505060405180910390fd5b83600c60008781526020019081526020016000206000018190555082600c60008781526020019081526020016000206002019080519060200190613122929190613925565b5081600c6000878152602001908152602001600020600301908051906020019061314d929190613972565b5083857fab0254d684b4d3209da56743fdf6410fa89c36a133efb05f6a509cf78b9b8e25600c6000898152602001908152602001600020600101548686604051808481526020018060200180602001838103835285818151815260200191508051906020019060200280838360005b838110156131d75780820151818401526020810190506131bc565b50505050905001838103825284818151815260200191508051906020019080838360005b838110156132165780820151818401526020810190506131fb565b50505050905090810190601f1680156132435780820380516001836020036101000a031916815260200191505b509550505050505060405180910390a360019050949350505050565b600080823b905060008111915050919050565b600061327d8261155f565b15156132f1576040517f08c379a00000000000000000000000000000000000000000000000000000000081526004018080602001828103825260108152602001807f4e6f6e2d6578697374656e74206b65790000000000000000000000000000000081525060200191505060405180910390fd5b6000600c60008481526020019081526020016000206001015490506000600d6001600d805490500381548110151561332557fe5b9060005260206000200154905080600d8381548110151561334257fe5b906000526020600020018190555081600c600083815260200190815260200160002060010181905550600d80548091906001900361338091906138f9565b50837fe7e87ecee6790f02e298c5c71c0b9c8ba50a01f5cc25d62b93f77eb4e48aed9e836040518082815260200191505060405180910390a2600c600082815260200190815260200160002060000154817fab0254d684b4d3209da56743fdf6410fa89c36a133efb05f6a509cf78b9b8e2584600c6000868152602001908152602001600020600201600c6000878152602001908152602001600020600301604051808481526020018060200180602001838103835285818154815260200191508054801561346e57602002820191906000526020600020905b81548152602001906001019080831161345a575b50508381038252848181546001816001161561010002031660029004815260200191508054600181600116156101000203166002900480156134f15780601f106134c6576101008083540402835291602001916134f1565b820191906000526020600020905b8154815290600101906020018083116134d457829003601f168201915b50509550505050505060405180910390a3600192505050919050565b600073ffffffffffffffffffffffffffffffffffffffff166002600083815260200190815260200160002060009054906101000a900473ffffffffffffffffffffffffffffffffffffffff1673ffffffffffffffffffffffffffffffffffffffff161415156135ca5760006002600083815260200190815260200160002060006101000a81548173ffffffffffffffffffffffffffffffffffffffff021916908373ffffffffffffffffffffffffffffffffffffffff1602179055505b50565b6135e56001826000015461360690919063ffffffff16565b816000018190555050565b6001816000016000828254019250508190555050565b6000828211151515613680576040517f08c379a000000000000000000000000000000000000000000000000000000000815260040180806020018281038252601e8152602001807f536166654d6174683a207375627472616374696f6e206f766572666c6f77000081525060200191505060405180910390fd5b600082840390508091505092915050565b600073ffffffffffffffffffffffffffffffffffffffff168273ffffffffffffffffffffffffffffffffffffffff1614151515613736576040517f08c379a00000000000000000000000000000000000000000000000000000000081526004018080602001828103825260208152602001807f4552433732313a206d696e7420746f20746865207a65726f206164647265737381525060200191505060405180910390fd5b61373f816120e1565b1515156137b4576040517f08c379a000000000000000000000000000000000000000000000000000000000815260040180806020018281038252601c8152602001807f4552433732313a20746f6b656e20616c7265616479206d696e7465640000000081525060200191505060405180910390fd5b816001600083815260200190815260200160002060006101000a81548173ffffffffffffffffffffffffffffffffffffffff021916908373ffffffffffffffffffffffffffffffffffffffff16021790555061384d600360008473ffffffffffffffffffffffffffffffffffffffff1673ffffffffffffffffffffffffffffffffffffffff1681526020019081526020016000206135f0565b808273ffffffffffffffffffffffffffffffffffffffff16600073ffffffffffffffffffffffffffffffffffffffff167fddf252ad1be2c89b69c2b068fc378daa952ba7f163c4a11628f55a4df523b3ef60405160405180910390a45050565b600a80549050600b600083815260200190815260200160002081905550600a81908060018154018082558091505090600182039060005260206000200160009091929091909150555050565b8154818355818111156139205781836000526020600020918201910161391f91906139f2565b5b505050565b828054828255906000526020600020908101928215613961579160200282015b82811115613960578251825591602001919060010190613945565b5b50905061396e91906139f2565b5090565b828054600181600116156101000203166002900490600052602060002090601f016020900481019282601f106139b357805160ff19168380011785556139e1565b828001600101855582156139e1579182015b828111156139e05782518255916020019190600101906139c5565b5b5090506139ee91906139f2565b5090565b613a1491905b80821115613a105760008160009055506001016139f8565b5090565b9056fea165627a7a72305820db617c21b76a45f009c1ab606ab39ac6f35d6db234ade6041b0d89f4361af1c30029",
  "source": "pragma solidity ^0.5.0;\nimport \"./GenericProvenance.sol\";\nimport \"./Provenance.sol\";\n\ncontract ProvenanceExample is Provenance, GenericProvenance(\"ProvenanceToken\", \"PROV\")  {\n\n    function createProvenance(uint _tokenId, string memory _context, uint[] memory _inputProvenanceIds) public returns (uint index) {\n        return _createProvenance(_tokenId, _context, _inputProvenanceIds);\n    }\n\n    function updateProvenance(uint _provId, uint _tokenId, string memory _context, uint[] memory _inputProvenanceIds) public returns (bool success) {\n        return _updateProvenance(_provId, _tokenId, _context, _inputProvenanceIds);\n    }\n\n    function deleteProvenance(uint _provId) public returns (bool success) {\n        return _deleteProvenance(_provId);\n    }\n\n    function requestToken() public returns (uint tokenId) {\n        return _requestToken();\n    }\n}\n\n",
  "sourcePath": "/Users/martensigwart/Code/projects/iotprovenance/iotprovenance/contracts/ProvenanceExample.sol",
  "compiler": {
    "name": "solc",
    "version": "0.5.0+commit.1d4f565a.Emscripten.clang"
  },
  "schemaVersion": "3.0.2",
  "updatedAt": "2019-10-22T18:28:07.425Z",
  "devdoc": {
    "methods": {
      "approve(address,uint256)": {
        "details": "Approves another address to transfer the given token ID The zero address indicates there is no approved address. There can only be one approved address per token at a given time. Can only be called by the token owner or an approved operator.",
        "params": {
          "to": "address to be approved for the given token ID",
          "tokenId": "uint256 ID of the token to be approved"
        }
      },
      "balanceOf(address)": {
        "details": "Gets the balance of the specified address.",
        "params": {
          "owner": "address to query the balance of"
        },
        "return": "uint256 representing the amount owned by the passed address"
      },
      "getApproved(uint256)": {
        "details": "Gets the approved address for a token ID, or zero if no address set Reverts if the token ID does not exist.",
        "params": {
          "tokenId": "uint256 ID of the token to query the approval of"
        },
        "return": "address currently approved for the given token ID"
      },
      "isApprovedForAll(address,address)": {
        "details": "Tells whether an operator is approved by a given owner.",
        "params": {
          "operator": "operator address which you want to query the approval of",
          "owner": "owner address which you want to query the approval of"
        },
        "return": "bool whether the given operator is approved by the given owner"
      },
      "name()": {
        "details": "Gets the token name.",
        "return": "string representing the token name"
      },
      "numberOfProvenanceRecordsFor(uint256)": {
        "details": "Gets the amount of provenance records associated with the specified token ID. Reverts if  - the specified token ID does not exist.",
        "params": {
          "_tokenId": "uint256 to query the amount of provenance records of."
        },
        "return": "uint256 representing the amount of provenance records associated with the specified token ID."
      },
      "ownerOf(uint256)": {
        "details": "Gets the owner of the specified token ID.",
        "params": {
          "tokenId": "uint256 ID of the token to query the owner of"
        },
        "return": "address currently marked as the owner of the given token ID"
      },
      "provenanceOfTokenByIndex(uint256,uint256)": {
        "details": "Gets the provenance ID at a given index of the provenance list of the requested token ID. Reverts if  - the requested index is out-of-bounds.",
        "params": {
          "_index": "uint256 representing the index to be accessed of the requested provenance list.",
          "_tokenId": "uint256 owning the provenance list to be accessed."
        },
        "return": "uint256 provenance ID at the given index of the provenance list associated with the given token ID."
      },
      "safeTransferFrom(address,address,uint256)": {
        "details": "Safely transfers the ownership of a given token ID to another address If the target address is a contract, it must implement `onERC721Received`, which is called upon a safe transfer, and return the magic value `bytes4(keccak256(\"onERC721Received(address,address,uint256,bytes)\"))`; otherwise, the transfer is reverted. Requires the msg.sender to be the owner, approved, or operator",
        "params": {
          "from": "current owner of the token",
          "to": "address to receive the ownership of the given token ID",
          "tokenId": "uint256 ID of the token to be transferred"
        }
      },
      "safeTransferFrom(address,address,uint256,bytes)": {
        "details": "Safely transfers the ownership of a given token ID to another address If the target address is a contract, it must implement `onERC721Received`, which is called upon a safe transfer, and return the magic value `bytes4(keccak256(\"onERC721Received(address,address,uint256,bytes)\"))`; otherwise, the transfer is reverted. Requires the msg.sender to be the owner, approved, or operator",
        "params": {
          "_data": "bytes data to send along with a safe transfer check",
          "from": "current owner of the token",
          "to": "address to receive the ownership of the given token ID",
          "tokenId": "uint256 ID of the token to be transferred"
        }
      },
      "setApprovalForAll(address,bool)": {
        "details": "Sets or unsets the approval of a given operator An operator is allowed to transfer all tokens of the sender on their behalf.",
        "params": {
          "approved": "representing the status of the approval to be set",
          "to": "operator address to set the approval"
        }
      },
      "supportsInterface(bytes4)": {
        "details": "See `IERC165.supportsInterface`.     * Time complexity O(1), guaranteed to always use less than 30 000 gas."
      },
      "symbol()": {
        "details": "Gets the token symbol.",
        "return": "string representing the token symbol"
      },
      "tokenByIndex(uint256)": {
        "details": "Gets the token ID at a given index of all the tokens in this contract Reverts if the index is greater or equal to the total number of tokens.",
        "params": {
          "index": "uint256 representing the index to be accessed of the tokens list"
        },
        "return": "uint256 token ID at the given index of the tokens list"
      },
      "tokenOfOwnerByIndex(address,uint256)": {
        "details": "Gets the token ID at a given index of the tokens list of the requested owner.",
        "params": {
          "index": "uint256 representing the index to be accessed of the requested tokens list",
          "owner": "address owning the tokens list to be accessed"
        },
        "return": "uint256 token ID at the given index of the tokens list owned by the requested address"
      },
      "tokenURI(uint256)": {
        "details": "Returns an URI for a given token ID. Throws if the token ID does not exist. May return an empty string.",
        "params": {
          "tokenId": "uint256 ID of the token to query"
        }
      },
      "totalSupply()": {
        "details": "Gets the total amount of tokens stored by the contract.",
        "return": "uint256 representing the total amount of tokens"
      },
      "transferFrom(address,address,uint256)": {
        "details": "Transfers the ownership of a given token ID to another address. Usage of this method is discouraged, use `safeTransferFrom` whenever possible. Requires the msg.sender to be the owner, approved, or operator.",
        "params": {
          "from": "current owner of the token",
          "to": "address to receive the ownership of the given token ID",
          "tokenId": "uint256 ID of the token to be transferred"
        }
      }
    }
  },
  "userdoc": {
    "methods": {}
  }
}